:100000000C9487160C94C7160C94C7160C94C7163C
:100010000C94C7160C94C7160C94C7160C94C716EC
:100020000C94C7160C94C7160C94C7160C94C716DC
:100030000C94C7160C94C7160C94C7160C94C716CC
:100040000C94C7160C944D870C94C7160C94C716C5
:100050000C94C7160C9427850C94C7160C9489C071
:100060000C94C7160C9450580C9446580C94C71610
:100070000C94C7160C94C7160C94C7160C94C7168C
:100080000C94C7160C94C7160C94C7160C94C7167C
:100090000C94C7160C94C7160C94C7160C94C7166C
:1000A0000C94C7160C94C7160C94C7160C94C7165C
:1000B0000C94C7160C94C7160C94C7160C94C7164C
:1000C0000C94C7160C94C7160C94C7160C94C7163C
:1000D0000C94C7160C94C7160C94C7160C94C7162C
:1000E0000C94C716084AD73B3BCE016E84BCBFFDBB
:1000F000C12F3D6C74319ABD56833DDA3D00C77FF8
:1001000011BED9E4BB4C3E916BAAAABE0000008090
:100110003F05A84CCDB2D44EB93836A9020C50B91F
:10012000918688083CA6AAAA2ABE000000803F004B
:100130004E414E494E495459494E46CDCCCC3D0ACC
:10014000D7233C17B7D13877CC2B329595E6241FAF
:10015000B14F0A000020410000C84200401C462068
:10016000BCBE4CCA1B0E5AAEC59D74434F4D4D5577
:100170004E49434154494F4E0044525952554E0046
:100180004552524F525300494E464F004543484F47
:1001900000506C6561736520526573657400505240
:1001A000494E5445522048414C5445440025533A49
:1001B000202553004B494C4C45442E200050726979
:1001C0006E7465722068616C7465642E206B696C56
:1001D0006C28292063616C6C6564210A0065636882
:1001E0006F3A004572726F723A0020440020204D31
:1001F000323030205300202844697361626C65649A
:10020000293A0046696C616D656E7420736574747B
:10021000696E67730020204D3230312058004D61E7
:100220007820416363656C65726174696F6E202824
:10023000756E6974732F7332290020204D3230336C
:100240002058004D6178206665656472617465733D
:100250002028756E6974732F7329002052002020A6
:100260004D323034205000416363656C65726174B7
:10027000696F6E2028756E6974732F733229202878
:10028000503C7072696E742D616363656C3E2052E0
:100290003C726574726163742D616363656C3E20AA
:1002A000543C74726176656C2D616363656C3E29A4
:1002B0000020580020540020530020204D323035BB
:1002C000204200416476616E6365642028423C6D83
:1002D000696E5F7365676D656E745F74696D655F88
:1002E00075733E20533C6D696E5F6665656472612F
:1002F00074653E20543C6D696E5F74726176656C06
:100300005F66656564726174653E20583C6D617816
:100310005F6A65726B3E20593C6D61785F6A6572F9
:100320006B3E205A3C6D61785F6A65726B3E20457A
:100330003C6D61785F6A65726B3E29002044002045
:10034000490020204D333031205000486F74656ED5
:1003500064205049440020440020490020204D33AF
:100360003034205000426564205049440020204D24
:100370003930370053746570706572206D6F746F1B
:10038000722063757272656E7473003B20002049A1
:100390006E76616C6964206578747275646572202C
:1003A0000020746F6F206C6F6E67206578747275B3
:1003B00073696F6E2070726576656E7465640A008D
:1003C00020636F6C6420657874727573696F6E203A
:1003D00070726576656E7465640A0047322F473324
:1003E0002062616420706172616D65746572730A68
:1003F00000536C6565702E2E2E00436C69636B2074
:10040000746F20526573756D652E2E2E004E6F2011
:100410004D6F76652E00456E642066696C65206CB4
:100420006973740A00426567696E2066696C6520AD
:100430006C6973740A004E6F206D656469610A000F
:10044000286E6F2066696C65290043757272656E4F
:10045000742066696C653A20004E6F742053442006
:100460007072696E74696E670A0053442070726915
:100470006E74696E67206279746520002E0A0044EC
:10048000656C6574696F6E206661696C65642C20AB
:1004900046696C653A200046696C652064656C6548
:1004A0007465643A002569730025696D20256973B8
:1004B000002569682025696D202569730025696418
:1004C000202569682025696D2025697300256979D3
:1004D00020256964202569682025696D20256973B8
:1004E000005072696E742074696D653A20006F6BFC
:1004F000006F6666008C018701800179016B014401
:10050000454255473A004D313133205300334420A2
:100510005072696E746572204F46462E00434F4EEE
:100520004649475F4558504F5254004D454154503D
:1005300041434B00434F4F4C45525F54454D50454E
:10054000524154555245004348414D4245525F5433
:10055000454D504552415455524500424142595330
:1005600054455050494E470041524353004D4F545B
:10057000494F4E5F4D4F44455300544845524D41FD
:100580004C5F50524F54454354494F4E00455854C8
:10059000454E4445445F4D323000435553544F4D12
:1005A0005F4649524D574152455F55504C4F41446B
:1005B000004C464E5F5752495445004C4F4E475FE2
:1005C00046494C454E414D45004155544F524550CA
:1005D0004F52545F53445F53544154555300534456
:1005E0005F575249544500524550454154004D55BE
:1005F0004C54495F564F4C554D450053444341526E
:10060000440050524F4D50545F535550504F525428
:1006100000484F53545F414354494F4E5F434F4D41
:100620004D414E445300454D455247454E43595F59
:1006300050415253455200434153455F4C4947484E
:10064000545F4252494748544E45535300544F4714
:10065000474C455F4C494748545300534F46545705
:100660004152455F504F574552004255494C445FF7
:1006700050455243454E54004C4556454C494E4713
:100680005F44415441005A5F50524F424500525519
:100690004E4F5554004155544F4C4556454C005013
:1006A00052494E545F4A4F420050524F47524553B1
:1006B00053004155544F5245504F52545F54454D8D
:1006C00050004155544F5245504F52545F504F5374
:1006D00000564F4C554D45545249430045455052E4
:1006E0004F4D0042494E4152595F46494C455F5477
:1006F00052414E534645520053455249414C5F5872
:100700004F4E5F584F4646004649524D574152455D
:100710005F4E414D453A4D61726C696E20322E310B
:100720002E3220284D617220203520323032332085
:1007300031323A30363A35372920534F55524345F6
:100740005F434F44455F55524C3A67697468756220
:100750002E636F6D2F4D61726C696E4669726D7795
:100760006172652F4D61726C696E2050524F544F0B
:10077000434F4C5F56455253494F4E3A312E30202D
:100780004D414348494E455F545950453A33442002
:100790005072696E746572204558545255444552E2
:1007A0005F434F554E543A3120555549443A63659D
:1007B0006465326132662D343161322D343734381C
:1007C0002D396231322D6335356336326633363733
:1007D0006666002F2F004D31343520533C696E641E
:1007E00065783E206F7574206F662072616E676554
:1007F0002028302D31290A0046523A0020466C6FDD
:10080000773A200064697300656E0043290A00612D
:10081000626C656420286D696E2074656D702000BF
:10082000436F6C64206578747275646573206172BF
:100830006520004F666673657473204170706C6943
:100840006564004572723A20546F6F2066617221B0
:1008500000546F6F206661722066726F6D20726542
:10086000666572656E636520706F696E740A004517
:100870004550524F4D204F4B0A004D383400446FC5
:100880006E65207072696E74696E672066696C654A
:100890000A004D3737004D333100496E76616C697F
:1008A000642065787472756465720A0020204D3288
:1008B0003036205800486F6D65206F66667365742A
:1008C000004361703A0020573A00436F6F6C696EC5
:1008D000672E2E2E0045312025530020573A004226
:1008E000656420436F6F6C696E672E2E2E00426523
:1008F000642048656174696E672E2E2E002364653E
:1009000066696E652044454641554C545F0000625F
:100910006564004B6420004B6920004B7020002070
:1009200066696E6973686564212050757420746807
:1009300065206C617374204B702C204B6920616EB4
:1009400064204B6420636F6E7374616E74732066F1
:10095000726F6D2062656C6F7720696E746F2043D3
:100960006F6E66696775726174696F6E2E680A00D2
:10097000504944204175746F74756E65002066613E
:10098000696C6564212074696D656F75740A005027
:100990004944204175746F74756E65002066616905
:1009A0006C6564212054656D706572617475726543
:1009B00020746F6F20686967680A005049442041BD
:1009C00075746F74756E6500504944204379636C8B
:1009D00065730025532025692F256900204B643A53
:1009E0002000204B693A2000204B703A2000204321
:1009F0006C617373696320504944200A00204E6F74
:100A0000206F76657273686F6F740A002054753AB0
:100A10002000204B753A2000206D61783A2000209C
:100A20006D696E3A200020643A200020626961738B
:100A30003A200048656174696E672E2E2E0020737F
:100A4000746172740A00504944204175746F747562
:100A50006E6500206661696C6564212054656D7067
:100A60006572617475726520746F6F20686967685C
:100A70000A00504944204175746F74756E650050CA
:100A80004944204175746F74756E65002066616914
:100A90006C65642120426164206865617465722020
:100AA00069640A00504944204175746F74756E651D
:100AB000004572723A207574663820666F6E742035
:100AC0006E6F7420696E697469616C697A65642EF1
:100AD000004572723A207574663820666F6E742015
:100AE0006E6F7420696E697469616C697A65642ED1
:100AF000004572723A207574663820666F6E7420F5
:100B00006E6F7420696E697469616C697A65642EB0
:100B10000020003A003A002568753A2530326875A1
:100B20000025303268753A2530326875002530323C
:100B30006875272530326875002568756420253072
:100B40003268753A25303268750042656400456E3A
:100B5000636C6F73757265004500200025002020CE
:100B60002020202020002020202000657272001FFD
:100B7000E020102010201010201020201020103015
:100B8000300840048003001FE03FF03FF03FF01FBB
:100B9000E01FE03FF03FF03FF00FC0078003003F51
:100BA000FFF038007030FC3020FC1020781020302E
:100BB000102C00D02E31D02F7BD02F7BD02E31D0D7
:100BC0002C00D020301020781020FC1030FC303861
:100BD00000703FFFF03FFFF0380070318630238710
:100BE000102787902F87D02F03D020301020781027
:100BF0002078102030102F03D02F87D02787902304
:100C000087103186303800703FFFF01FFFF81FFF5C
:100C1000F804104002082002082004104008208038
:100C20001041001041000820800410400000001F07
:100C3000FFF81FFFF85072696E742041626F727482
:100C40006564004D32350050617573696E672E2EF4
:100C50002E004D323400454550524F4D205665729E
:100C600073696F6E204572726F7200454550524F26
:100C70004D20496E646578204572726F720045455B
:100C800050524F4D20435243204572726F72003FC5
:100C90000049676E6F726500526573657400496E36
:100CA000697469616C697A6520454550524F4D0001
:100CB00046696C2E204469612E004520696E206DC6
:100CC0006D5E330020082046616374002008204DCB
:100CD0006178002008204D696E004F6666004F6EF7
:100CE000004175746F74656D70004D696E205472AB
:100CF0006176656C205370656564004D696E2056A1
:100D0000656C6F63697479004D6178204020537081
:100D1000656564004D6178204520416363656C0022
:100D20004D6178204020416363656C0054726176A8
:100D3000656C20416363656C005265747261637415
:100D400020416363656C00416363656C004D6178AD
:100D50002040204A65726B00402073746570732FC9
:100D60006D6D00416476616E6365642053657474D3
:100D7000696E6773003F0043616E63656C00496E86
:100D80006974004D34323800496E697469616C6968
:100D90007A6520454550524F4D0046696C616D653E
:100DA0006E740054656D7065726174757265005380
:100DB000746570732F6D6D004A65726B00416363DB
:100DC000656C65726174696F6E004D617820537057
:100DD00065656420286D6D2F732900536574204864
:100DE0006F6D65204F66667365747300436F6E6642
:100DF000696775726174696F6E00426564004E6F59
:100E00007A7A6C650046616E2053706565640043B4
:100E10006F6E66696775726174696F6E0052657393
:100E2000746F72652044656661756C7473004C6FF5
:100E300061642053657474696E67730053746F72D4
:100E4000652053657474696E6773005072656865D8
:100E50006174202420436F6E6600416476616E6386
:100E600065642053657474696E6773004D61696EC3
:100E7000003F004261636B0053746F70004E6F203F
:100E80004D65646961005072696E742066726F6DA1
:100E9000204D65646961004368616E6765204D653A
:100EA000646961004D323100436F6E666967757227
:100EB0006174696F6E0054656D70657261747572EE
:100EC00065004D6F74696F6E00526573756D6520B6
:100ED0005072696E740054756E650053746F7020A3
:100EE0005072696E74005061757365205072696E3E
:100EF0007400496E666F2053637265656E003F0033
:100F00005374617274205072696E740043616E6331
:100F1000656C005072696E740043616E6E6F742070
:100F2000656E746572207375626469723A2000029E
:100F3000202E2E004D61696E00000C0F00FE07028E
:100F40002503BB017FFE08FE08FE05080806000019
:100F500040F0C88888987810050808060000C0F896
:100F60008888888888F80505050600012030F83053
:100F7000200508080600002070F820202020E00549
:100F800009090600FF2070A8A8B888887020070506
:100F900005070001D86C366CD80509090600FFF872
:100FA000A88888888888A8F8050A0A0600FE2050C4
:100FB00050505088A8A8887003030306000340A07F
:100FC00040FFFFFFFFFFFFFFFFFFFFFFFFFFFFFFF0
:100FD000FFFFFFFFFFFFFF0000000605FF010707FF
:100FE00006020080808080800080030303060105E4
:100FF000A0A0A005060606000050F85050F85005C5
:1010000009090600FF2070A8A07028A87020050715
:1010100007060000C8C8102040989805070706007A
:101020000040A0A040A8906801030306020580804C
:10103000800309090601FF20404080808040402055
:101040000309090601FF8040402020204040800520
:10105000070706000020A8702070A82005050506D7
:1010600000012020F820200203030601FFC0408079
:10107000050101060003F8020202060100C0C005D6
:1010800007070600000810102040408005070706EB
:101090000000708898A8C888700307070601004000
:1010A000C040404040E00507070600007088081077
:1010B0002040F8050707060000F80810300888707F
:1010C00005070706000010305090F81010050707BC
:1010D000060000F880F00808887005070706000081
:1010E000304080F0888870050707060000F8081077
:1010F0001020202005070706000070888870888867
:1011000070050707060000708888780810600205DF
:1011100005060100C0C000C0C00206060601FFC0EF
:10112000C000C0408003050506010120408040202A
:10113000050303060002F800F80305050601018017
:10114000402040800507070600007088102020001E
:10115000200507070600007088B8A8B8807005074A
:1011600007060000708888F8888888050707060049
:1011700000F04848704848F00507070600007088EE
:101180008080808870050707060000F048484848BE
:1011900048F0050707060000F88080F08080F80519
:1011A0000707060000F88080F080808005070706AA
:1011B0000000708880809888700507070600008806
:1011C0008888F8888888030707060100E0404040C7
:1011D0004040E0050707060000381010101090602E
:1011E0000507070600008890A0C0A09088050707A3
:1011F000060000808080808080F8050707060000D8
:1012000088D8A8888888880507070600008888C8C5
:10121000A89888880507070600007088888888884D
:1012200070050707060000F08888F08080800507B9
:101230000706000070888888A890680507070600E0
:1012400000F08888F0A090880507070600007088E5
:101250008070088870050707060000F8202020200D
:101260002020050707060000888888888888700580
:101270000707060000888888885050200507070661
:10128000000088888888A8A85005070706000088FD
:10129000885020508888050707060000888850205D
:1012A000202020050707060000F80810204080F8DD
:1012B0000309090601FFE080808080808080E005CE
:1012C00007070600008040402010100803090906A7
:1012D00001FFE020202020202020E005030306005D
:1012E000052050880501010600FEF80303030601EE
:1012F00005804020050505060000700878887805FF
:1013000007070600008080F0888888F0050505063C
:1013100000007080808870050707060000080878C4
:10132000888888780505050600007088F0807005BB
:101330000707060000304840E04040400507070628
:1013400000FE70888888780870050707060000800E
:1013500080F0888888880307070601004000C040A5
:101360004040E00409090601FE1000301010101082
:10137000906005070706000080808890E090880351
:101380000707060100C04040404040E00505050653
:101390000000D0A8A8A8A8050505060000B0C888C8
:1013A000888805050506000070888888700507078D
:1013B0000600FEF0888888F080800507070600FE9A
:1013C00078888888780808050505060000B0C88078
:1013D000808005050506000078807008F005070785
:1013E0000600002020F82020201805050506000032
:1013F0008888889868050505060000888888502038
:101400000505050600008888A8A850050505060002
:101410000088502050880507070600FE88888850FD
:10142000204080050505060000F8102040F803095B
:10143000090601FF2040404080404040200109094A
:101440000602FF80808080808080808003090906FA
:1014500001FF8040404020404040800503030600DB
:101460000248A890FF504554470041425300504C59
:1014700041002100486F74656E6420746F6F2063B3
:101480006F6C64004261636B0050726F63656564EA
:10149000004D6F7665204578747275646572004DF5
:1014A0006F74696F6E0044697361626C6520537478
:1014B000657070657273004D3834004732385A00D9
:1014C0004732385900486F6D652040004732385820
:1014D000004175746F20486F6D6500473238004DCC
:1014E00061696E00507265686561742024204265F0
:1014F000640050726568656174202420456E640044
:1015000054656D7065726174757265006E146A144D
:101510006514436F6F6C646F776E00507265686519
:10152000617420240046616E205370656564207EDE
:1015300000426564004E6F7A7A6C65004D61696E99
:1015400000466C6F770046616E20537065656420BD
:101550007E00426564004E6F7A7A6C650053706558
:101560006564004D61696E006F70656E005452498C
:10157000474745524544003A20007A5F6D61780044
:101580007A5F6D696E00795F6D696E00785F6D6975
:101590006E005265706F7274696E6720656E647359
:1015A000746F70207374617475730A00000080C0DA
:1015B000000000C0000048435761726E696E673AD0
:1015C00020486F6D696E672042756D7020446976A2
:1015D00069736F72203C20310A000202040000513E
:1015E0004300808043000057430000A0400000A05B
:1015F000400000004053657474696E677320537433
:101600006F72656400290A002062797465733B205B
:10161000637263200053657474696E67732053743A
:101620006F72656420280048617264636F6465644A
:101630002044656661756C742053657474696E67C7
:1016400073204C6F616465640044696769706F74EE
:10165000205772697474656E0A0057726974696EF6
:10166000672044696769706F740A0020286D6D29CE
:101670000020460020420020480020204D31343513
:101680002053004D6174657269616C2068656174F6
:10169000757020706172616D6574657273002020D1
:1016A0004D3134392043203B20556E6974732069D5
:1016B0006E2043656C736975730A0054656D7065BF
:1016C00072617475726520556E69747300202047CD
:1016D0003231203B004C696E65617220556E697431
:1016E0007300454550524F4D206461746173697AAF
:1016F00065206572726F722E0A00290A00206279D5
:101700007465733B2063726320002073746F72658D
:10171000642073657474696E67732072657472698E
:1017200065766564202800202863616C63756C61B0
:1017300074656429210A0020213D2000454550524E
:101740004F4D20435243206D69736D61746368206F
:101750002D202873746F7265642920002053697AE4
:10176000653A2000496E6465783A2000444947494B
:10177000504F5453204C6F616465640A00444947DC
:1017800049504F5453204C6F6164696E670A0000E2
:10179000009643000096430000A0410000F0418FF6
:1017A000C2B1428FC2B142CDEC7B4400C0EB43B02A
:1017B000040000B00400000A000000D00700002070
:1017C0004D61726C696E3D563837290A00454550A7
:1017D000524F4D2076657273696F6E206D69736D1F
:1017E000617463682028454550524F4D3D002043A9
:1017F0006F756E7420583A004D6963726F7374652B
:10180000707320756E617661696C61626C650A0047
:101810002045303A00205A3A0020593A0020583AE0
:10182000004D53317C327C332050696E730000428E
:101830006564004531004500626564002C207379C1
:101840007374656D2073746F7070656421204865D2
:10185000617465725F49443A20004572723A204DC6
:10186000415854454D50004D415854454D502074F9
:1018700072696767657265640048656174696E675F
:10188000204661696C65640048656174696E672013
:101890006661696C6564004572723A204D494E5428
:1018A000454D50004D494E54454D50207472696766
:1018B000676572656400202F002042403A00204096
:1018C0003A000009121B242D363F48415A536C65DB
:1018D0007E7719100B023D342F265158434A757CF0
:1018E000676E323B2029161F040D7A7368615E57BC
:1018F0004C452B2239300F061D14636A7178474E10
:10190000555C646D767F4049525B2C253E3708015B
:101910001A137D746F6659504B42353C272E1118AF
:10192000030A565F444D727B60691E170C053A33FB
:1019300028214F465D546B627970070E151C232ACF
:1019400031384148535A656C777E09001B122D24AB
:101950003F3658514A437C756E671019020B343D6F
:10196000262F737A6168575E454C3B3229201F163B
:101970000D046A6378714E475C55222B3039060F8F
:10198000141D252C373E0108131A6D647F764940DB
:101990005B523C352E2718110A03747D666F50592F
:1019A000424B171E050C333A21285F564D447B727B
:1019B00069600E071C152A233831464F545D626B4F
:1019C000707900002110422063308440A550C66029
:1019D000E770088129914AA16BB18CC1ADD1CEE1EC
:1019E000EFF13112100273325222B5529442F77263
:1019F000D662399318837BB35AA3BDD39CC3FFF33C
:101A0000DEE36224433420040114E664C774A44472
:101A100085546AA54BB528850995EEE5CFF5ACC58B
:101A20008DD55336722611163006D776F666955642
:101A3000B4465BB77AA719973887DFF7FEE79DD7DB
:101A4000BCC7C448E5588668A778400861180228D2
:101A50002338CCC9EDD98EE9AFF9488969990AA92B
:101A60002BB9F55AD44AB77A966A711A500A333AA2
:101A7000122AFDDBDCCBBFFB9EEB799B588B3BBB7B
:101A80001AABA66C877CE44CC55C222C033C600C32
:101A9000411CAEED8FFDECCDCDDD2AAD0BBD688DCB
:101AA000499D977EB66ED55EF44E133E322E511E82
:101AB000700E9FFFBEEFDDDFFCCF1BBF3AAF599F1B
:101AC000788F8891A981CAB1EBA10CD12DC14EF1BB
:101AD0006FE18010A100C230E32004502540467021
:101AE0006760B9839893FBA3DAB33DC31CD37FE34C
:101AF0005EF3B1029012F322D23235421452776271
:101B00005672EAB5CBA5A89589856EF54FE52CD51B
:101B10000DC5E234C324A0148104667447642454C0
:101B20000544DBA7FAB79987B8975FE77EF71DC72B
:101B30003CD7D326F2369106B01657667676154610
:101B400034564CD96DC90EF92FE9C899E9898AB97B
:101B5000ABA94458654806782768C018E108823860
:101B6000A3287DCB5CDB3FEB1EFBF98BD89BBBAB8B
:101B70009ABB754A545A376A167AF10AD01AB32AB0
:101B8000923A2EFD0FED6CDD4DCDAABD8BADE89DDB
:101B9000C98D267C076C645C454CA23C832CE01C00
:101BA000C10C1FEF3EFF5DCF7CDF9BAFBABFD98F6B
:101BB000F89F176E367E554E745E932EB23ED10E50
:101BC000F01E7C3C3E5E2B3D3F2F5B5D3B2C2A2272
:101BD0005C004D6564696120496E697420466169E5
:101BE0006C0053442063617264206F6B0A006F7055
:101BF000656E526F6F74206661696C65640A007669
:101C00006F6C756D652E696E6974206661696C65AF
:101C1000640A004E6F20534420636172640A0053CB
:101C20004420636172642072656C65617365640A47
:101C3000000A4D3234004D3233202573002E0A0045
:101C40006F70656E206661696C65642C2046696CF6
:101C5000653A200046696C652073656C6563746540
:101C6000640A002053697A653A200046696C652051
:101C70006F70656E65643A2000454E4420535542AE
:101C8000524F5554494E450A002220706F7300226E
:101C900020706172656E743A2200535542524F555E
:101CA00054494E452043414C4C2074617267657421
:101CB0003A220053756263616C6C204F76657266E0
:101CC0006C6F77004578636565646564206D617845
:101CD00020535542524F5554494E45206465707407
:101CE000683A0057726974696E6720746F2066697C
:101CF0006C653A2000667265736800646F696E6790
:101D0000002066696C653A20004E6F7720002F61D5
:101D100075746F25632E67006D61726C696E6677EE
:101D20002E6F726700322E312E32001FFFFFFFFF31
:101D3000FFFF600000000001FF400000000000FF06
:101D40008000000000007F83CF00000C303F87FF41
:101D500080000C301F867980000C000F8C30C78308
:101D60008C30E78C30CFC7CC31F38C30DCECEC33EB
:101D7000B98C30D86C6C33198C30D06C0C33198C16
:101D800030D86C0C33198C30DC6C0E3B198C30CF96
:101D90007C079F198C30C77C038F1940000000001E
:101DA0000002600000000000061FFFFFFFFFFFF8B9
:101DB00070012C0190012701B0012201C0011D0119
:101DC000F00118011002130130020E016002090136
:101DD00090020401C002FF000003FA004003F50076
:101DE0008003F000D003EB002004E6007004E10063
:101DF000E004DC004005D700C005D2004006CD005D
:101E0000D006C8008007C3003008BE00F008B90043
:101E1000C009B400B00AAF00B00BAA00D00CA500F6
:101E2000000EA000500F9B00C010960050129100B1
:101E300000148C00C0158700B0178200B0197D0017
:101E4000D01B7800001E730040206E0090226900B5
:101E5000F024640040275F0090295A00E02B5500D1
:101E6000102E500020304B0010324600E03341006D
:101E700090353C001037370070383200A0392D0003
:101E8000B03A2800A03B2300603C1E00103D190022
:101E9000903D1400103E0F00703E0A00C03E050049
:101EA000003F0000403FFBFF803FF6FFC03FF1FFD7
:101EB0002020506C616E6E65724275666665724276
:101EC000797465733A20002046726565204D656D12
:101ED0006F72793A200020436F6D70696C65643AC7
:101EE000204D617220203520323032330A00204CE0
:101EF00061737420557064617465643A20323032C5
:101F0000322D31322D3137207C20417574686F724B
:101F10003A20284D32205265762E48204D472D76A6
:101F2000302E31204D61726C696E2D76322E312E3D
:101F300032202D20476172726574742030322F3246
:101F4000382F32303233290A004D61726C696E20AD
:101F5000322E312E320A0020536F6674776172651B
:101F60002052657365740A00205761746368646F5A
:101F7000672052657365740A002042726F776E2085
:101F80006F75742052657365740A00204578746516
:101F9000726E616C2052657365740A00506F7765CC
:101FA0007255700A0073746172740A0047323858AF
:101FB00059004D31303031006F6B006572726F72B5
:101FC0002077726974696E6720746F2066696C652A
:101FD0000A00446F6E6520736176696E67206669DA
:101FE0006C652E0A00456E6473746F707300255320
:101FF00020256320256320256320256300205A3A8D
:102000000020593A0020583A00656E6473746F706E
:1020100073206869743A200000000A0B02090C0D55
:102020000E0807030401000000000000000000008B
:1020300000000000000000000000000000000000A0
:10204000000000001211100000000000000000005D
:102050000000000000000000000000000000000080
:10206000000000000000000000000000000024F458
:1020700004D9201BC40C5C0E9804C4095F026507D8
:102080007101F405F900FB04B30048048700C103A3
:1020900069005803550003034500BE023A0084025C
:1020A000310053022A002902250004022000E40125
:1020B0001C00C8011900AF01170098011400840129
:1020C0001300710110006101100051010E00430165
:1020D0000D0036010B002B010B0020010B00150138
:1020E00009000C01090003010800FB000800F300CF
:1020F0000800EB000700E4000600DE000600D80040
:102100000600D2000600CC000500C7000500C20092
:102110000500BD000400B9000400B5000400B100D2
:102120000400AD000400A9000400A5000300A20003
:1021300003009F0004009B0003009800030095002B
:10214000020093000300900003008D0002008B004A
:102150000300880002008600020084000300810062
:1021600002007F0002007D0002007B000200790077
:102170000200770001007600020074000200720085
:102180000100710002006F0002006D0001006C0090
:1021900002006A0001006900020067000100660099
:1021A000010065000100640002006200010061009E
:1021B0000100600001005F0002005D0001005C00A2
:1021C00001005B0001005A000100590001005800A5
:1021D00001005700010056000100550001005400A5
:1021E00001005300000053000100520001005100A3
:1021F0000100500001004F0001004E0000004E00A1
:1022000001004D0001004C0001004B0000004B009C
:1022100001004A0001004900010048000000480098
:102220000100470001004600000046000100450093
:10223000000045000100440001004300000043008D
:102240000100420000004200010041000000410086
:102250000100400001003F0000003F0001003E007F
:1022600000003E0001003D0000003D0001003C0078
:1022700000003C0000003C0001003B0000003B006F
:1022800001003A0000003A00010039000000390066
:10229000010038000000380000003800010037005D
:1022A0000000370001003600000036000000360054
:1022B0000100350000003500000035000100340049
:1022C000000034000000340001003300000033003F
:1022D0000000330001003200000032000000320034
:1022E0000100310000003100000031000100300029
:1022F000000030000000300001002F0000002F001F
:1023000000002F0000002F0001002E0000002E0012
:1023100000002E0001002D0000002D0000002D0007
:1023200000002D0001002C0000002C0000002C00FB
:1023300000002C0001002B0000002B0000002B00EF
:1023400000002B0001002A0000002A0000002A00E3
:1023500000002A00010029000000290000002900D7
:1023600000002900000029000100280000002800CA
:1023700000002800000028000000280001002700BD
:1023800000002700000027000000270000002700B1
:1023900001002600000026000000260000002600A4
:1023A0000000260001002500000025000000250097
:1023B0000000250000002500000025000100240089
:1023C000000024000000240000002400000024007D
:1023D0000100230000002300000023000000230070
:1023E0000000230000002300000023000100220061
:1023F0000000220000002200000022000000220055
:102400000000220001002100000021000000210046
:102410000000210000002100000021000000210038
:10242000010020000000200000002000000020002B
:10243000000020000000200000002000000020001C
:1024400001001F0000001F0000001F0000001F000F
:1024500000001F0000001F0000001F0001001E0000
:1024600000001E0000001E0000001E00000024F4FA
:10247000D43050C38E20C2A24017828B7011127AC2
:10248000910D816CD90AA861E108C75866076151AE
:1024900043061E4B5D05C145A7041A411104093DC1
:1024A0009803713931034036DB0265339102D43031
:1024B0005402802E1D02632CEE01752AC501B0283E
:1024C000A001102781018F2564012B244B01E022FC
:1024D0003401AC211F018D200D01801FFC00841EE2
:1024E000ED00971DDF00B81CD200E61BC600201BC4
:1024F000BC00641AB200B219A8000A19A0006A1838
:102500009900D117910040178B00B5168400311641
:102510007E00B31579003A157300C7146F00581484
:102520006A00EE1366008813630025135E00C7126D
:102530005B006C12570015125400C111510070114C
:102540004F0021114B00D61049008D104700461056
:10255000440002104200C00F4000800F3E00420FB6
:102560003C00060F3B00CB0E3800930E37005C0E8C
:102570003500270E3400F30D3200C10D3100900DEF
:102580003000600D2E00320D2D00050D2C00D90CF1
:102590002B00AE0C2900850C29005C0C2700350CA3
:1025A00027000E0C2600E80B2400C40B2400A00B0F
:1025B00023007D0B23005A0B2100390B2100180B3F
:1025C0002000F80A1F00D90A1E00BB0A1E009D0A3F
:1025D0001D00800A1D00630A1C00470A1B002C0A0C
:1025E0001B00110A1A00F7091A00DD091900C409B5
:1025F0001900AB091900920917007B09180063093B
:1026000017004C09160036091600200916000A09A1
:102610001500F5081500E0081400CC081400B808EF
:102620001400A4081400900813007D0812006B0821
:10263000130058081200460812003408110023083D
:1026400011001208110001081100F0071000E00746
:102650001000D0071000C0071000B0070F00A1073E
:10266000100091070E0083070F0074070F00650725
:102670000E0057070E0049070E003B070D002E07FE
:102680000E0020070D0013070D0006070D00F906C8
:102690000C00ED060D00E0060C00D4060C00C80688
:1026A0000C00BC060C00B0060C00A4060B0099063A
:1026B0000C008D060B0082060B0077060B006C06E3
:1026C0000B0061060A0057060B004C060A00420682
:1026D0000A0038060A002E060A0024060A001A0616
:1026E0000A001006090007060A00FD050900F405A6
:1026F0000900EB050900E2050900D9050900D0052C
:102700000900C7050900BE050900B5050800AD05AB
:102710000800A50509009C050800940508008C0523
:102720000800840508007C050800740508006C0595
:102730000700650508005D050700560508004E0501
:102740000700470507004005080038050700310568
:1027500007002A050700230507001C0506001605CB
:1027600007000F0507000805060002050700FB0427
:102770000600F5040700EE040600E8040600E20483
:102780000700DB040600D5040600CF040600C904D8
:102790000600C3040600BD040600B7040600B10429
:1027A0000500AC040600A6040600A00405009B0476
:1027B000060095040500900406008A0405008504BF
:1027C0000500800406007A04050075040500700405
:1027D00005006B04050066040500610405005C0447
:1027E000050057040500520405004D040500480487
:1027F0000500430405003E0404003A0405003504C6
:102800000500300404002C04050027040400230400
:1028100005001E0404001A04040016040500110437
:1028200004000D040400090405000404040000046D
:102830000400FC030400F8030400F4030400F003A4
:102840000400EC030400E8030400E4030400E003D4
:102850000400DC030400D8030400D4030400D00304
:102860000400CC030400C8030300C50303003A2E90
:1028700000007B1D0000181100004A090000DB0465
:1028800000007C02000041010000A10000004D6F2B
:10289000766520246D6D00302E303235004D6F7618
:1028A0006520302E316D6D004D6F766520316D6D78
:1028B000004D6F76652031306D6D004D6F7665206F
:1028C00041786973004D6F7665202A004D6F7665FB
:1028D00020400020002000200020002000000022D6
:1028E00000250028002B002E0031003400020100DA
:1028F00000050108010B0100002100240027002A27
:10290000002D003000330001010000040107010A1E
:102910000105050505070508080808020202020A64
:102920000A08080404040401010101010101010372
:1029300003030303030303040707070C0C0C0C0C2D
:102940000C0C0C0202020206060606060606060B20
:102950000B0B0B0B0B0B0B07070A0A0A0A0A0A05DB
:1029600005050404040808010210202008081020AE
:10297000401020408002010201080402010102040B
:1029800008102040808040201008040201800402CA
:102990000180402010080402010804020101020421
:1029A0000810204080010204081020408010080414
:1029B00008801020400440801020400480486F6D43
:1029C000696E67204661696C656400FFFF014361C1
:1029D0006E6E6F74206F70656E20737562646972BD
:1029E0002000220A00556E6B6E6F776E20636F6D4C
:1029F0006D616E643A202200204500205A00205963
:102A00000020204D393220580053746570732070B7
:102A1000657220756E6974004572726F72207772EC
:102A20006974696E6720746F20454550524F4D217F
:102A30000A00627573793A20706175736564206667
:102A40006F7220696E7075740A00627573793A202E
:102A500070617573656420666F7220757365720AA4
:102A600000627573793A2070726F63657373696E73
:102A7000670A004D656469612052656D6F76656413
:102A8000004D6564696120496E7365727465640008
:102A90004D3131322053687574646F776E00535432
:102AA0004F505045442E20005072696E746572205C
:102AB00073746F707065642064756520746F206531
:102AC00072726F72732E2046697820746865206573
:102AD00072726F7220616E6420757365204D393992
:102AE0003920746F20726573746172742E202854BB
:102AF000656D7065726174757265206973207265A9
:102B00007365742E20536574206974206166746542
:102B1000722072657374617274696E67290A004E5F
:102B20006F20436865636B73756D207769746820E7
:102B30006C696E65206E756D6265722C204C6173D8
:102B400074204C696E653A20004D3239004E6F207A
:102B5000436865636B73756D2077697468206C6971
:102B60006E65206E756D6265722C204C61737420E9
:102B70004C696E653A2000636865636B73756D2000
:102B80006D69736D617463682C204C617374204CA3
:102B9000696E653A20004C696E65204E756D626500
:102BA00072206973206E6F74204C617374204C69BD
:102BB0006E65204E756D6265722B312C204C6173F1
:102BC00074204C696E653A20004D313130005365F8
:102BD0007269616C20737461747573206D69736DB3
:102BE000617463680A0053442072656164206572F1
:102BF000726F720A004B494C4C20627574746F6E90
:102C00002F70696E0A002121204B494C4C206361D2
:102C1000757365642062792000746F6F206D756331
:102C20006820696E6163746976652074696D6520DA
:102C30002D2063757272656E7420636F6D6D616EA9
:102C4000643A20002121204B494C4C20636175736C
:102C50006564206279200020746F6F206C6F6E674E
:102C600020657874727573696F6E20707265766511
:102C70006E7465640A0020636F6C642065787472FA
:102C80007573696F6E2070726576656E7465640A1F
:102C900000544845524D414C2052554E41574159E0
:102CA00000546865726D616C2052756E6177617950
:102CB00000486F6D65202573257325732046697262
:102CC00073740020453A00205A3A0020593A0058BF
:102CD0003A006F6B0A00526573656E643A200033E8
:102CE00044205072696E7465722052656164792E59
:102CF000005072696E74696E672E2E2E00507269D4
:102D00006E74205061757365640023DC12E5112434
:102D10001FBECFEFD1E2DEBFCDBF00E00CBF84B756
:102D20008093901414BE0FB6F894A895809160001B
:102D3000886180936000109260000FBE13E0A0E0F5
:102D4000B2E0ECEAF2EE01E00BBF02C007900D9298
:102D5000A239B107D9F724E1A2E9B3E001C01D927D
:102D6000A039B207E1F716E1C6E8D6E100E006C0F7
:102D700021970109802FFE010E9402EEC538D1077C
:102D800080E00807A9F70E94F5DC0C9445F10C944B
:102D900000008091F8138823C1F081508093F813CC
:102DA000E4E5F2E1882351F08150990B2BE1289F53
:102DB000F001299FF00D1124E651FD4E8BE1A9E3AE
:102DC000B2E101900D928A95E1F72091F81321115B
:102DD00005C08091031480648093031481E090E027
:102DE000A0E0B0E0211103C080E090E0DC0180931E
:102DF0000A0790930B07A0930C07B0930D0710924E
:102E0000030781E080931A0783E0809334020895DA
:102E1000CF93DF93EC01CB01BA010E9491E929EC39
:102E200038EC48EC5EE30E94E7EE20E030E040E062
:102E30005FE30E940BEE0E9454EF6883DF91CF9115
:102E40000895E091210786E0E802F0011124E252A2
:102E5000F94F8091F70690E09583848308958F92CF
:102E60009F92AF92BF92CF92DF92EF92FF92CF9359
:102E70006B017C0120E030E0A9010E948BE987FD15
:102E8000C3C06DEB77E386E095E3A70196010E944E
:102E90000BEE6B017C0120E030E0A9010E948BE980
:102EA00087FFB7C0C701B601905820E030E040E28C
:102EB00051E40E94F0E920E030E040E251E40E9459
:102EC000F0E920E030E040EA50E40E940BEE20E020
:102ED00030E040E251E40E94E7EE0E944FEF6B01C8
:102EE0007C0160E280EAC81686E8D80681E0E80640
:102EF000F1048CF0C701B60120EA36E841E050E069
:102F00000E9487EDCA01B9012AE030E040E050E0BC
:102F10000E9487ED605D6093FB0660E280E1C81669
:102F200087E2D806E104F1048CF0C701B60120E184
:102F300037E240E050E00E9487EDCA01B9012AE083
:102F400030E040E050E00E9487ED605D6093FC0659
:102F500060E288EEC81683E0D806E104F1048CF044
:102F6000C701B60128EE33E040E050E00E9487ED53
:102F7000CA01B9012AE030E040E050E00E9487ED4C
:102F8000605D6093FD0660E284E6C816D104E1044A
:102F9000F1048CF0C701B60124E630E040E050E0D7
:102FA0000E9487EDCA01B9012AE030E040E050E01C
:102FB0000E9487ED605D6093FE068AE0882E912C6A
:102FC000A12CB12CC701B601A50194010E9487ED87
:102FD000C62FCA01B901A50194010E9487ED605D69
:102FE0006093FF068EE280930007C05DC0930107E7
:102FF0008BEF96E0CF91FF90EF90DF90CF90BF9056
:10300000AF909F908F9008956DEB77E386E095EBFE
:103010003CCF20E030E040E251E4C701B60149CFA7
:10302000CF93DF93EC01CB01BA010E9491E920E03C
:1030300030E040E251E40E94E7EE688379838A83BE
:103040009B83DF91CF9108950E9491E920E030E0C9
:1030500040E251E40E94E7EE02CFCF93DF93EC0110
:10306000CB01BA010E9491E9688379838A839B83AB
:10307000DF91CF910895CF93DF93EC01CB01BA019B
:103080000E9491E9688379838A839B83DF91CF9142
:103090000895CF93DF93EC01CB01BA010E9491E92F
:1030A00020E030E048EC52E40E94E7EE6883798348
:1030B0008A839B83DF91CF910895CF93DF93EC01B7
:1030C000CB01BA010E9491E920E030E048EC52E4E3
:1030D0000E94E7EE688379838A839B83DF91CF9197
:1030E0000895CF93DF93EC01CB01BA010E9491E9DF
:1030F0002AE037ED43E25DE30E94E7EE0E9454EFE1
:10310000688379838A839B83DF91CF910895CF93DE
:10311000DF93EC01CB01BA010E9491E92AE037ED7F
:1031200043E25DE30E94E7EE688379838A839B83B1
:10313000DF91CF910895CF93DF93EC01CB01BA01DA
:103140000E9491E90E944FEF79836883DF91CF91CC
:103150000895CF93DF93EC01CB01BA010E9491E96E
:1031600020E030E04AE754E40E94E7EE6883798388
:103170008A839B83DF91CF910895FC018491089508
:10318000FC0180810895FC01A081B1811C92A28183
:10319000B3818C918F5F8C930280F381E02D9081BD
:1031A0008CE0989F800D1124ECEAF2E113AE84AF1D
:1031B0000895009751F0FC0180E09191992331F03E
:1031C000907C9038D1F38F5FF8CF80E00895909194
:1031D000050194709093030100C087FD7FC0A39800
:1031E00090910501909594709093030100C000C0E8
:1031F0009091050194709093030100C086FD7AC000
:10320000A39890910501909594709093030100C04C
:1032100000C09091050194709093030100C085FD5A
:1032200067C0A398909105019095947090930301C5
:1032300000C000C09091050194709093030100C0FC
:1032400084FD54C0A398909105019095947090933B
:10325000030100C000C09091050194709093030198
:1032600000C083FD41C0A398909105019095947092
:103270009093030100C000C0909105019470909359
:10328000030100C082FD2EC0A39890910501909586
:1032900094709093030100C000C090910501947058
:1032A0009093030100C081FD1BC0A398809105018C
:1032B000809584708093030100C000C08091050157
:1032C00084708093030100C0A398809105018095CC
:1032D00084708093030100C000C00895A39A80CF3A
:1032E000A39AE4CFA39AD1CFA39ABECFA39AABCF90
:1032F000A39A98CFA39A85CF90E080E00895CF93CA
:10330000DF93C091CF06D091D00681E0CE31D105B8
:10331000E4F020E030E040E05FE36091CB067091A4
:10332000CC068091CD069091CE060E940BEE0E94B5
:103330004FEF6C1B7D0B77FF03C071956195710991
:1033400081E0633071050CF080E0DF91CF9108954A
:1033500090E080E0089520919D04833021F425FDC4
:103360000CC024FD0CC030E0A90102C05595479562
:103370008A95E2F7CA018170089581E0089580E09E
:1033800008958091B80484FD0BC08091BA0487FD34
:1033900007C09091BB04937081E019F480E0089518
:1033A00081E008952FEB280F2A3108F047C0E22F63
:1033B000F0E08091B8049091B904A091BA04B09162
:1033C000BB0404C0B695A795979587952A95D2F723
:1033D00080FD02C081700895E256FB4FE081EE232C
:1033E00041F18091BB079091BC07E80FF92FF11DC7
:1033F000808190ED980F9A3030F08E3251F48181B7
:1034000080538A3098F4F0939C04E0939B0481E00D
:1034100008958D3211F08B3249F4818190ED980F2F
:103420009A3088F38E3211F48281EACFF0E0E0E046
:10343000EACF10929C0410929B04E9CF80E008959B
:103440008091CB11813069F09091031492FB882711
:1034500080F992FF07C097FB882780F991E08927C0
:10346000089581E008958091841290918512891BBE
:103470008F7009F4E5CF81E008950E9491E929EC6D
:1034800038EC48EC5EE30E94E7EE20E030E040E0FC
:103490005FE30E940BEE0E9454EF862F0C94669F10
:1034A000CF92DF92EF92FF920E9491E96B017C0133
:1034B00020E030E0A9010E948BE92DEB37E346E0E4
:1034C00055E387FF04C02DEB37E346E055EBC7011A
:1034D000B6010E940BEE6B017C0120E030E0A901F7
:1034E0000E948BE920E030E040E05FE387FF04C00A
:1034F00020E030E040E05FEBC701B6010E940BEE38
:103500000E944FEFCB01FF90EF90DF90CF900C9493
:10351000319F0E9491E90E944FEFCB010C94319FA3
:1035200080913402882341F06091400570914105FB
:1035300041E081E00C943DB90895CF93DF9300D032
:103540001F92CDB7DEB70E9454EF0E948FE96983C6
:103550007A838B839C83CE0101960E94059C0F90F9
:103560000F900F900F90DF91CF9108950E9491E9F5
:103570002AE037ED43E25DE30E94E7EEDECFCF9233
:10358000DF92EF92FF92CF93DF9300D01F92CDB7DF
:10359000DEB76B017C0120E030E0A9010E948BE9DD
:1035A00087FD1BC06DEB77E386E095E3A7019601ED
:1035B0000E940BEE69837A838B839C83CE010196F4
:1035C0000E94059C0F900F900F900F90DF91CF916C
:1035D000FF90EF90DF90CF9008956DEB77E386E05A
:1035E00095EBE4CF0E9491E92AE037ED43E25DE3F9
:1035F0000E94E7EEC4CF0E9491E9C1CFCF92DF9243
:10360000EF92FF92CF93DF9300D01F92CDB7DEB73A
:103610000E9491E920E030E048EC52E40E94E7EE9D
:103620006B017C0120E030E0A9010E948BE92DEBC9
:1036300037E346E055E387FF04C02DEB37E346E070
:1036400055EBC701B6010E940BEE69837A838B8329
:103650009C83CE0101960E94609B0F900F900F906B
:103660000F90DF91CF91FF90EF90DF90CF90089572
:10367000CF92DF92EF92FF92CF93DF9300D01F9211
:10368000CDB7DEB70E9491E920E030E048EC52E48B
:103690000E94E7EE6B017C0120E030E0A9010E946E
:1036A0008BE92DEB37E346E055E387FF04C02DEBB4
:1036B00037E346E055EBC701B6010E940BEE698384
:1036C0007A838B839C83CE0101960E94789D0F9014
:1036D0000F900F900F90DF91CF91FF90EF90DF90C0
:1036E000CF900895CF92DF92EF92FF92CF93DF9326
:1036F00000D01F92CDB7DEB70E9491E920E030E004
:103700004AE754E40E94E7EE6B017C0120E030E0E0
:10371000A9010E948BE92DEB37E346E055E387FFD3
:1037200004C02DEB37E346E055EBC701B6010E941C
:103730000BEE69837A838B839C83CE0101960E9472
:10374000FDBA0F900F900F900F90DF91CF91FF90E7
:10375000EF90DF90CF9008950C943E8C0C943E8CAB
:103760000C94F08B0C94F08B0C94F08B0C94F08BED
:1037700063E972E084E690E00E942DA570E060E0CD
:103780008AE090E00E942DA56AEB72E084E690E06A
:103790000C942DA58111ECCF68E270E080E991E0F6
:1037A0000C942DA50E94CB88F5CF0E94F5AEF2CFE8
:1037B0000E944399DDCFCF92DF92EF92FF920F9359
:1037C0001F930E94B9BF0091C6041091C7042091B5
:1037D000C8043091C9046B017C01C01AD10AE20A05
:1037E000F30A9701860137FD11C02091C504209589
:1037F0002093C5046A547C4F8F4F9F4F6093C6043B
:103800007093C7048093C8049093C90481E0909199
:10381000C504911101C080E01F910F91FF90EF90BE
:10382000DF90CF900895BF92CF92DF92EF92FF92F8
:103830000F931F93CF93DF936B01E9014A3009F493
:10384000D6C0453109F081C0DB011296ED91FC91A3
:103850001281C681D781A49A00C0000086E290E060
:103860000197F0F7012F0295007F20E1B22EB10EF3
:1038700088EFADDC00C0000086E290E00197F0F731
:10388000103208F0A1C0812F80778068A0DC802FE3
:103890009EDC00C0000086E290E00197F0F780E82F
:1038A00096DC80E094DC00C0000086E290E00197A6
:1038B000F0F78AEF8CDC00C0000086E290E0019710
:1038C000F0F77E01B0E1EB0EF11C8881807F7FDC98
:1038D00089918295807F7BDCCE15DF05B1F700C032
:1038E000000086E290E00197F0F71F5F005F1B1178
:1038F000BFCFA498D6011296ED91FC918081928160
:10390000980F92832181921708F02DC294819F5FB6
:1039100094839381890F821710F08FEF820F838336
:10392000458150E0440F551F70E060E0868197812B
:103930000E94F1F081E0DF91CF911F910F91FF90F4
:10394000EF90DF90CF90BF900895FB01028113812B
:10395000423309F40AC208F412C2463409F4FFC122
:10396000473409F407C24B3329F789812B81D801E9
:1039700012967C91129713963C91213009F444C21F
:10398000233009F025C248EF480F582F91E0341733
:1039900008F490E031E0541708F030E0492F432B51
:1039A00061E0571708F460E0462319F4932309F403
:1039B000C1CFFA8030E0F901EC55FD4FD0802056A0
:1039C0003D4FF901E0801DC280EE810F8068807F4D
:1039D000FEDB812F8295807FFADB00C0000086E24B
:1039E00090E00197F0F780E8F2DB80E85BCF9C9AEB
:1039F000A4989B9AA3988091040184608093040109
:103A0000809105018095847080930301A49A00C081
:103A1000000086E290E00197F0F788E790E0CEE9B9
:103A2000DFE0FE013197F1F70197D9F788EFCFDB9F
:103A300000C0000086E290E00197F0F780E2C7DB6B
:103A400080E0C5DB00C0000086E290E00197F0F75F
:103A500080E0BDDB80E8BBDB00C0000086E290E0D8
:103A60000197F0F780E0B3DB80E1B1DB00C000003C
:103A700086E290E00197F0F7CE010197F1F7CE01D1
:103A80000197F1F7CE010197F1F7CE010197F1F718
:103A9000CE010197F1F7CE010197F1F7CE01019721
:103AA000F1F7CE010197F1F7CE010197F1F7CE01C1
:103AB0000197F1F7CE010197F1F7CE010197F1F7E8
:103AC000CE010197F1F7CE010197F1F72197F1F7B8
:103AD00080E27DDB80E47BDB00C0000086E290E0DA
:103AE0000197F0F780E273DB80E671DB00C0000035
:103AF00086E290E00197F0F7D0E0C0E08C2F80776D
:103B0000806865DB8D2F63DB00C0000086E290E0FB
:103B10000197F0F780E85BDB80E059DB00C0000034
:103B200086E290E00197F0F78AEF51DB00C00000D9
:103B300086E290E00197F0F790E2809105018470B1
:103B40008093030100C0A398809105018095847043
:103B50008093030100C000C08091050184708093B0
:103B6000030100C0A3988091050180958470809323
:103B7000030100C000C0809105018470809303019F
:103B800000C0A39880910501809584708093030103
:103B900000C000C08091050184708093030100C0C3
:103BA000A39880910501809584708093030100C0E3
:103BB00000C08091050184708093030100C0A39828
:103BC00080910501809584708093030100C000C03E
:103BD0008091050184708093030100C0A3988091B7
:103BE0000501809584708093030100C000C080911E
:103BF000050184708093030100C0A39880910501A2
:103C0000809584708093030100C000C080910501FD
:103C100084708093030100C0A39880910501809572
:103C200084708093030100C000C0809105018470FE
:103C30008093030100C0A398809105018095847052
:103C40008093030100C000C08091050184708093BF
:103C5000030100C0A3988091050180958470809332
:103C6000030100C000C080910501847080930301AE
:103C700000C0A39880910501809584708093030112
:103C800000C000C08091050184708093030100C0D2
:103C9000A39880910501809584708093030100C0F2
:103CA00000C08091050184708093030100C0A39837
:103CB00080910501809584708093030100C000C04D
:103CC0008091050184708093030100C0A3988091C6
:103CD0000501809584708093030100C000C080912D
:103CE000050184708093030100C0A39880910501B1
:103CF000809584708093030100C000C0809105010D
:103D000084708093030100C0A39880910501809581
:103D100084708093030100C000C000C00000E6E290
:103D2000F0E03197F0F7915009F007CF88EF4FDAC4
:103D300000C0000086E290E00197F0F7CF5FD05F0F
:103D4000C03209F0DBCE80E042DA80EC40DA00C01D
:103D5000000086E290E00197F0F7A498EBCDF8011F
:103D600085818883E7CD80E0E6CDB901C8010E9456
:103D7000D3C0E0CDD80111968C918883DBCD44313E
:103D800091F0473109F0D6CD1882D80112968C9166
:103D90001297898315968C91159781508A83139673
:103DA0008C918B83C7CDD80115964C91159750E017
:103DB000440F551F70E060E016968D919C910E9413
:103DC000F1F0F80112828081815083831482B2CD98
:103DD000381708F4AFCD871708F4ACCDFA80E12C82
:103DE000D12C243070F4E6CDBE01C8010E94D3C0AE
:103DF000898198819D0D98838E0D8983FF0C09F42C
:103E000099CDF7FEF6CFF0CF58E0580F482FBECD32
:103E1000EF92FF920F931F93CF93DF93EC018B01EF
:103E20007A018A859B858617970731F08881998169
:103E30000E9405C31B870A87B701888199810E9468
:103E4000F5B92E813F81820F932F911D9F838E8321
:103E500090E080E0DF91CF911F910F91FF90EF9064
:103E600008959F92AF92BF92CF92DF92EF92FF920E
:103E70000F931F93CF93DF93EC018B01942EA52E0C
:103E80008A859B858617970731F0888199810E94E2
:103E900005C31B870A8788859985019649F5BC80EB
:103EA0000A818E81080FC880D980D6015596ED9180
:103EB000FC91C6011995B80EE92CFA2C10E0F70117
:103EC00021917F01211127C08E819F81810F911D3A
:103ED0009F838E8390E080E0DF91CF911F910F91BF
:103EE000FF90EF90DF90CF90BF90AF909F9008959C
:103EF0000E811F81692D7A2D888199810E94F5B9E3
:103F0000800F912F911D288539852817390738F69C
:103F100081E090E0E1CF4B2D602FC6010E945DC390
:103F2000080F180FCCCFDF92EF92FF920F931F93E1
:103F3000CF93DF93EC01D62E1CAD0BAD7C0184E05A
:103F4000E80EF11CE98DFA8DC7011995412F480F34
:103F50002D2D602FC7010E945DC39BAD890F8BAFD4
:103F600081E090E0DF91CF911F910F91FF90EF9052
:103F7000DF9008952F923F924F925F926F927F92BF
:103F80008F929F92AF92BF92CF92DF92EF92FF9269
:103F90000F931F93CF93DF93CDB7DEB72D970FB657
:103FA000F894DEBF0FBECDBF4BDA882309F46CC096
:103FB0000E94C59A4B015C0145E050E060E270E070
:103FC0008EEC94E00E94F1F085E48093CC048AE3C7
:103FD0008093CD04C501B40120E13EE040E050E013
:103FE0000E9465EDD22EC32E022F132F8CE3282EB4
:103FF000312C412C512CC501B401A20191010E9428
:1040000065ED762E672ECA01B901A20191010E94C9
:1040100065ED9E012F5F3F4F790130E8831631E552
:10402000930631E0A306B10408F447C07F936F9371
:10403000C80168E170E00E94DBED9F938F93C5019A
:10404000B40120E831E541E050E00E9465ED3F9386
:104050002F9389E39BE09F938F93FF92EF920E94AF
:1040600024E9C7010E94DAE80FB6F894DEBF0FBE5C
:10407000CDBF2CE030E0A901481B5109CA01B701AE
:1040800084539B4F0E9416F12D960FB6F894DEBF15
:104090000FBECDBFDF91CF911F910F91FF90EF9099
:1040A000DF90CF90BF90AF909F908F907F906F9058
:1040B0005F904F903F902F9008950115110599F44E
:1040C0006F927F927F936F938DE29BE09F938F938C
:1040D000FF92EF920E9424E90FB6F894DEBF0FBE64
:1040E000CDBF85E0C6CF0436110538F47F936F93BA
:1040F000CF92DF9281E29BE0E9CF7F936F93CF92E3
:10410000DF9287E19BE09F938F93FF92EF920E9453
:1041100024E90FB6F894DEBF0FBECDBF86E0A9CF6D
:10412000CF93C091DA04CC2391F14CE050E060E2EF
:1041300070E08CEC94E00E94F1F080E2C43628F04C
:104140008C2F64E60E94C2ED805D8093FF0690E2B2
:10415000CA3040F02AE08C2F622F0E94C2ED0E94EC
:10416000C2ED905D909300078C2F6AE00E94C2ED33
:10417000905D9093010783E0EFEFF6E0A0EDB4E0EF
:1041800001900D928A95E1F785E28093D304CF9157
:104190000895CF92DF92EF92FF920F931F93CF93E8
:1041A000DF93CDB7DEB72C970FB6F894DEBF0FBE06
:1041B000CDBFF090E712E090E8122091C4042111E5
:1041C0001DC041ED5AE06E2D8F2D0E94C8C390E0B6
:1041D00080E0F80EF092E712E092E81299272C9610
:1041E0000FB6F894DEBF0FBECDBFDF91CF911F9108
:1041F0000F91FF90EF90DF90CF900895C090B41290
:10420000D090B51220EB32E13A8329832F2D30E094
:104210003C832B832E2D30E03E832D8318861F8216
:104220007A8769871C861B8601E31FE19E012F5F49
:104230003F4F4DEB58E1BC01C6010E9418B1B601D9
:1042400080EB92E10E9405C38F819885C2CF809157
:104250009B0490919C04009731F04AE050E070E09C
:1042600060E00C94ACE760E070E0CB0108958091D1
:104270009B0490919C04009731F04AE050E070E07C
:1042800060E00C9481E660E070E0CB010895EFDF20
:1042900097FD0AC0ECDF6F3F71058105910509F0BC
:1042A0002CF4E5DF862F089580E008958FEF0895C0
:1042B0000F931F93CF9380919B0490919C04009740
:1042C00009F1FC018F01C1912C2F2F7DA1F0C53484
:1042D00031F0C53621F0C83511F0C83799F7F8012B
:1042E000108270E060E00E942CE5F801C083CF915D
:1042F0001F910F91089570E060E0CF911F910F9191
:104300000C942CE560E070E0CB01F1CFCF93DF930C
:10431000CDB7DEB720E2488559856F818E810E9436
:10432000A2B9DF91CF9108950F931F93522F20913F
:10433000AA123091AB122817390731F110926A0591
:104340009093AB128093AA128B0130E020E000938F
:104350000A0710930B0720930C0730930D07409327
:104360000307509304078F5A924421F410922F07A9
:1043700010923F0582E08093340281E080931A0717
:1043800010924305109242051F910F910895CF930B
:10439000C1E0C0932F07FC0180819181A281B3818C
:1043A0008093170290931802A0931902B0931A02F7
:1043B00020E040E070E060E08091F5069091F60624
:1043C000B3DFC0936A05CF91089520E040E070E02C
:1043D00060E08FEA92E4A8CF83EA91E10E94607BDB
:1043E000F4DF0C947CB1CF930E9443990E94CB8858
:1043F000C82F882319F080E00E9436888C2FCAD9F4
:10440000CF91E3CF83E89DE0909385068093840667
:10441000DCCFCF93DF93C0913F05CC23B1F0C150E7
:10442000C0933F0589E0C89FE0011124C75FDA4FC0
:104430006A817B812F814E818881998175DF888592
:1044400080932F07DF91CF910895DF91CF91BDCF5A
:104450002F923F924F925F926F927F928F929F9294
:10446000AF92BF92CF92DF92EF92FF920F931F9382
:10447000CF93DF9300D000D000D0CDB7DEB70E943D
:10448000331A89830E94A7BA50900307252C25E090
:10449000250D2A8381E085198D83852D81958E8355
:1044A00092ED692E9BE1792E0CE31EE085E08519E3
:1044B0008F8328EDE22E2BE1F22E3DE1C32E3EE06C
:1044C000D32E45EDA42E4BE1B42E5EE2852E5EE0A8
:1044D000952E5110E4C080910507882309F4B9C0D6
:1044E00080913402882359F081E090910507911161
:1044F00080E024E04CE65EE06E810E94A2B98CE090
:1045000095E19987888782E0482E9EEF950D9B83E1
:10451000252D22192C83541023C0E885F985859117
:1045200094912B8120932107909325078093240752
:10453000109223071092220780910507851509F430
:10454000D4C080913402882359F081E0909105070E
:10455000941180E023E04BE45EE06C810E94A2B9FC
:10456000342C8885998502969987888744244394BA
:10457000430C95E04912CFCF59121DC08091050719
:10458000853009F4C3C0809134028823A1F07F9262
:104590006F921F930F932F812F9381E090910507C6
:1045A000953009F080E08F93B1DE0F900F900F905F
:1045B0000F900F900F9082E0830D9981911142C06E
:1045C00085111DC080910507851509F4ADC0809146
:1045D00034028823A1F0BF92AF929F928F92852DD3
:1045E00082198F9381E090910507951180E08F9358
:1045F0008DDE0F900F900F900F900F900F9083E033
:10460000830D85111DC080910507851509F49AC099
:10461000809134028823A1F0FF92EF92DF92CF9233
:10462000852D82198F9381E090910507951180E087
:104630008F936CDE0F900F900F900F900F900F9054
:1046400084E0830D53942A81521243CF8093040750
:104650000DC08091F0061092F006882309F440CF37
:10466000D8DE80911A07882309F43ACF29960FB62D
:10467000F894DEBF0FBECDBFDF91CF911F910F9198
:10468000FF90EF90DF90CF90BF90AF909F908F9072
:104690007F906F905F904F903F902F90089591E0A2
:1046A00059122DCF80910507813081F0809134021D
:1046B000882309F424CF81E090910507913009F017
:1046C00080E023E04AE55EE06D8117CF8091F0063F
:1046D0001092F006882351F38AED93E20E9458A5C8
:1046E00080911A07882311F3C1CF8091F0061092B0
:1046F000F006882309F425CF8DE293E30E9458A5A4
:1047000080911A07882309F41CCFB0CF8091F0065E
:104710001092F006882309F436CF44D880911A0706
:10472000882309F430CFA2CF8091F0061092F006D2
:10473000882309F44CCF39D880911A07882309F4CB
:1047400046CF94CF8091F0061092F006882309F4AA
:104750005FCF2ED880911A07882309F459CF86CFCE
:10476000E0913F05E63028F581E08E0F80933F050C
:1047700040910A0750910B0760910C0770910D074B
:10478000209103079091040780912F0739E0E39F60
:10479000F0011124E75FFA4FA091AA12B091AB1279
:1047A000B183A08342835383648375832683978375
:1047B000808708954F925F926F927F928F929F921F
:1047C000AF92BF92CF92DF92EF92FF920F931F931F
:1047D000CF93DF930E94331A682E0E94A7BAC0912C
:1047E000030715E0611001C016E00C2F85E0582E7C
:1047F0005C0E85E0F82EFC1A84E0E82EEC1A83E0CB
:10480000982E9C1A82E0882E8C1A93E8A92E9DE09F
:10481000B92E2BEDC22E2DE0D22E81E0782E7C1AFF
:104820004C2E4194C11131C080910507882389F035
:1048300080913402882309F445C081E090910507F6
:10484000911180E024E04CEE5DE0642D0E94A2B95D
:1048500039C08091F0061092F006882349F3D9DD23
:1048600080911A07882321F3DF91CF911F910F9137
:10487000FF90EF90DF90CF90BF90AF909F908F9080
:104880007F906F905F904F900895C13009F072C093
:1048900080910507813009F45BC080913402882340
:1048A00089F01F92DF92CF927F9281E0909105076D
:1048B000913009F080E08F9329DD0F900F900F90D9
:1048C0000F900F90611091C0C53009F08EC080919B
:1048D0000507853009F4B6C0809134028111C3C048
:1048E000D6E081E08D0F8C1315C0809105078C17E1
:1048F00009F4E4C080913402882361F06C2F601BBE
:1049000081E0909105079C1380E023E04AE95DE097
:104910000E94A2B982E08D0F8C1313C090910507FD
:104920009C1709F4DCC080913402882351F06C2F6D
:10493000601B81E09C1380E023E048E85DE00E947A
:10494000A2B9CF5F5C126ECFDD5FD09304078CCF2E
:104950008091F0061092F006882309F49ECFB09261
:104960008506A092840631DD80911A07882309F418
:1049700094CF7ACFC23009F0D1C080910507823040
:1049800081F080913402882309F49CCF81E09091DA
:104990000507923009F080E023E04AEC5DE0682DE5
:1049A00055CF8091F0061092F006882351F381EDE7
:1049B00094E30E9458A580911A07882311F354CFDD
:1049C000809105078330F1F080913402882309F447
:1049D00079CF81E090910507933009F080E023E0E2
:1049E0004DEB5DE0692D0E94A2B91C1309C08091B6
:1049F0000507811709F444C080913402811151C028
:104A0000D12F6FCF8091F0061092F0068823E1F24B
:104A100086E796E30E9458A580911A078823A1F2A1
:104A200023CF8091F0061092F006882309F481C00C
:104A300086E999E30E9458A580911A07882309F412
:104A400078C012CF8091F0061092F006882309F406
:104A500043CF8DE99BE30E9458A580911A078823D4
:104A600009F43ACF01CF81E090910507953009F024
:104A700080E023E04FEA5DE06F2D0E94A2B930CFC5
:104A80008091F0061092F006882309F4B5CF86EFE6
:104A90009CE30E9458A580911A07882309F4ACCFA3
:104AA000E3CE6C2F601B81E0909105079C1380E0A2
:104AB00023E043EA5DE00E94A2B9A2CF8091F00614
:104AC0001092F006882309F415CF8EE69EE30E942B
:104AD00058A580911A07882309F40CCFC5CE809180
:104AE000F0061092F006882309F41DCF39DE20E08D
:104AF00040E070E060E083ED9AE2DF91CF911F919A
:104B00000F91FF90EF90DF90CF90BF90AF909F906C
:104B10008F907F906F905F904F9006CCC33009F4D8
:104B20004FCFC43009F0CECE80910507843009F410
:104B300078CF80913402882309F4C4CE81E090912B
:104B40000507943009F080E023E048EB5DE06E2D2E
:104B50004ACF8093F70620E040E070E060E081EF0C
:104B60009AE2E2CBCF93DF93CDB7DEB78E81282FC9
:104B7000082E000C330B9091F9119217130609F0CF
:104B80008CF48093F9119E01275F3F4F4F81588528
:104B90006AE270E08EEC91E10E9453E91092CD112F
:104BA0001092CC11DF91CF9108950F931F93CF9363
:104BB000DF938C016F3F19F41092F91160E020919E
:104BC000F911862F062E000C990B2817190609F0EB
:104BD00014F56093F911C8010E94DAE8800F911F63
:104BE000EC01C01BD10BCB32D1053CF00197FC018D
:104BF0002491207C2038D1F3F3CFDD27AE01B8011A
:104C00008EEC91E10E94FBE8C253DE4E18821092B6
:104C1000CD111092CC11DF91CF911F910F9108957A
:104C2000CF9380910105811109C087E49CE09093A6
:104C300041058093400581E08093010591DD20E0EE
:104C400040E070E060E080E99AE16EDBC1E0C09393
:104C50002F070E94618C10922F07DBDBC0932F0778
:104C600060E08DEF9CE2A1DF83E49CE090938506F9
:104C700080938406CF9108950F931F930E94B9BF2C
:104C80000091FD041091FE042091FF043091000575
:104C9000601B710B820B930B97FD13C08091030176
:104CA00085FB882780F991E089279091030196FF81
:104CB00082609091030194FF02C0629B84608093A4
:104CC000FC048091FC0481709091FC0491FD826051
:104CD0009091FB04981749F0813009F148F0823037
:104CE00079F0833091F08093FB041F910F91089528
:104CF000913079F09230B9F79091FA0491500CC04C
:104D0000992339F09330C1F3EECF9130A9F392306B
:104D100051F79091FA049F5F9093FA04E4CF99239E
:104D200059F3933001F7F5CFCF92DF92EF92FF92D4
:104D3000CF93C82F0E94B9BF6B017C0124EA30E7F2
:104D40004DE75FE36091170270911802809119029C
:104D500090911A020E948BE987FD18C08AEF90E0BB
:104D6000A0E0B0E08C0D9D1DAE1DBF1D8093EE0434
:104D70009093EF04A093F004B093F104C093150254
:104D8000CF91FF90EF90DF90CF90089580E090E07A
:104D9000DC01E8CFFC0180E0309749F09491992341
:104DA00031F0907C903809F08F5F3196F7CF0895FD
:104DB000AF92BF92CF92DF92EF92FF920F931F9329
:104DC000CF93DF93EC015B018A01FB01199587FD0D
:104DD00016C0C82ED12CF12CE12C2196F801C082EE
:104DE000D182E282F382CE01DF91CF911F910F91A8
:104DF000FF90EF90DF90CF90BF90AF900895982FE5
:104E0000907E903CA9F48F7190E0B0E0A0E06C013E
:104E10007D0156E0CC0CDD1CEE1CFF1C5A95D1F731
:104E2000CE010196F50119958F73C82A2296D6CF27
:104E3000982F907F903E11F58F7090E0B0E0A0E049
:104E40006C017D0136E0CC0CDD1CEE1CFF1C3A959C
:104E5000D1F7CE010196F50119958F73C82A46E066
:104E6000CC0CDD1CEE1CFF1C4A95D1F7CE0102963E
:104E7000F50119958F73C82A2396B0CF982F987F84
:104E8000903F79F5877090E0B0E0A0E06C017D0183
:104E900086E0CC0CDD1CEE1CFF1C8A95D1F7CE0100
:104EA0000196F50119958F73C82A96E0CC0CDD1C8C
:104EB000EE1CFF1C9A95D1F7CE010296F5011995CB
:104EC0008F73C82A26E0CC0CDD1CEE1CFF1C2A9533
:104ED000D1F7CE010396F50119958F73C82A249650
:104EE0007DCF982F907C903841F4807C803869F495
:104EF0002196CE01F5011995F8CF8E7F8D3F28F0D0
:104F00002196CE01F5011995F8CFC12CD12C76014F
:104F100065CF9CE0899F802D112491E0980F90939C
:104F2000C3042CE0280F2093200730E02E5F3F4F72
:104F30004091E4124217130619F014F080E008952E
:104F40002091E6129217D0F7662341F08E5F0E94FF
:104F500033C2809120078E5F0E9433C28091200768
:104F60009091E412891750F32091E6129091C304B6
:104F7000291720F31092E7128093E81281E0089538
:104F8000CF938091C204811154C01092E712109205
:104F9000E8121092E9121092B5121092B412109207
:104FA000B7121092B6121092B91281E08093B81223
:104FB00082E28093BA121092BF121092BE12E3EDF9
:104FC000F2E121EE32E18FEF81932E173F07E1F7F7
:104FD000C1E0C093D01227E83FEA3093C612209375
:104FE000C512C093C7121092C8121092C91290E451
:104FF0009093CA121092CB1226E83FEA3093E21245
:105000002093E1122EE032E03093B3122093B212DB
:1050100098E49093D71297E49093D81296E49093E3
:10502000D5128093D4128093D3120E9411C1C093E1
:10503000C20481E08093C40481E19BE09093FB1162
:105040008093FA111092FD111092FC11CF910895E6
:10505000CF93DF9395DFE4E0F1E080818F7D808363
:10506000C5E0D1E0888180958072A3E0B1E08C93A7
:1050700080818F7B80838881809580748C936A98EF
:10508000729A80818F7E80838881809580718C93D5
:10509000F3DD1092FA04DF91CF910C947CB1209152
:1050A000C104022E000C330B8217130641F08093CB
:1050B000C10469E37FE080EB92E10C9405C308959D
:1050C000EF92FF920F931F93CF93DF93CDB7DEB78D
:1050D0002C970FB6F894DEBF0FBECDBFFC016081E8
:1050E0007181828193816F3F71058105910509F07E
:1050F000C0F48CEA92E10E94931FE091B412F09107
:10510000B5123196849190E02C960FB6F894DEBFDC
:105110000FBECDBFDF91CF911F910F91FF90EF9008
:1051200008951091E7120091E8122091C404211112
:105130000FC041EF5AE0602F812F0E94C8C390E05A
:1051400080E0180F1093E7120093E8129927DCCF44
:10515000E090B412F090B51220EB32E13A8329834B
:10516000212F30E03C832B83202F30E03E832D83A2
:1051700018861F822FEF3FEF3A8729871C861B86F0
:1051800021E33FE1AE014F5F5F4FBF01C7010E94C6
:1051900053B0B70180EB92E10E9405C38F819885DF
:1051A000D0CF4F925F926F927F928F929F92BF92D9
:1051B000CF92DF92EF92FF920F931F93CF93DF93E3
:1051C00000D000D01F921F92CDB7DEB77C016A01DC
:1051D0004901FB0190818CE0989F800D1124982F4C
:1051E000F7012081822F880F820F880F8093E712AA
:1051F0009093E8124115510569F1FA82E9827C83A6
:105200006B83011120C0AE014B5F5F4FB401C6013B
:10521000CFDD6C018D819E81AF81B885892B8A2B72
:105220008B2BC1F0CE0105964BDFF70180818F5F9C
:105230008083853140F3CE0101960E94C318E3CFED
:10524000B12C860129C08A01B12C26C045284628E8
:105250004728B1F728960FB6F894DEBF0FBECDBF32
:10526000DF91CF911F910F91FF90EF90DF90CF9042
:10527000BF909F908F907F906F905F904F90089518
:10528000B39407C0B1102DC001151105C9F20F5F0D
:105290001F4F01151105A9F2AE014B5F5F4FB4011D
:1052A000C60186DD6C014D805E806F80788441147C
:1052B000510461047104A9F0F0E24F165104610435
:1052C000710401F3D301C2018D97A109B1090297BD
:1052D000A105B10530F04BE244165104610471049C
:1052E00079F6F7018081482F4B0D5527551F463120
:1052F000510534F0853020F0CE0101960E94C3188C
:1053000081E0411451046104710409F480E0B80E95
:10531000F70180818B0D8083BB2009F497CFBA946D
:10532000AE014B5F5F4FB401C80142DD8C01CE017D
:105330000596C6DEF1CF2F923F924F925F926F9209
:105340007F928F929F92AF92BF92CF92DF92EF9215
:10535000FF920F931F93CF93DF9300D0CDB7DEB7AB
:105360004C013B015A012B83232E280181E08093BD
:105370002F0740910A0750910B0760910C0770911D
:105380000D07411551056105710571F014161506DB
:105390000CF080E08093420510920A0710920B07F0
:1053A00010920C0710920D07109142053090F006F4
:1053B0001092F006311005C080913402882309F460
:1053C00069C0C201E7DC082F80E0C114D10411F0EC
:1053D000C601E0DC1A821982E114F104B1F4402F15
:1053E00050E0282F30E0CA01820F931F46976CF4DB
:1053F00085E190E0841B950B821B930B97FD019632
:10540000959587958A8381E0898301E02DEB38E1CA
:10541000A201BE016F5F7F4FCE010296C2DEE11492
:10542000F10489F08A81882321F01A8289818F5FB3
:10543000898300E020EC38E1A701BE016F5F7F4F58
:10544000CE010296AEDEC114D10451F000E02DEB86
:1054500038E1A601BE016F5F7F4FCE010296A1DE4B
:1054600041E04127B30181E00E94A2C2C40192DC65
:10547000412FB40194E1981B892F0E94A2C23320CE
:1054800049F0111102C0AB80B22CA114B104C1F0DB
:10549000F50119950F900F900F90DF91CF911F910B
:1054A0000F91FF90EF90DF90CF90BF90AF909F90C3
:1054B0008F907F906F905F904F903F902F900895C6
:1054C0000E940922E7CFAF92BF92CF92DF92EF9274
:1054D000FF920F931F93CF93DF93CDB7DEB7ADB697
:1054E000BEB68091B01163EA71E1882311F060EBE0
:1054F00071E1FB0101900020E9F7CF01861B970BBA
:1055000001962DB73EB7281B390B0FB6F8943EBF56
:105510000FBE2DBF8DB79EB701967C0180E2EDB71F
:10552000FEB78183C70101960E9416F18EEFC82E47
:105530008EE0D82E00E01FE030E020E04CEE51E29B
:105540006CE07FE083E19FE0F6DE0FB6F894BEBE2C
:105550000FBEADBEDF91CF911F910F91FF90EF90E5
:10556000DF90CF90BF90AF900895CF92DF92EF92EF
:10557000FF920F931F9381E7C82E8EE0D82EF12C57
:10558000E12C0BED1EE030E020E04BE952E463E754
:105590007EE088E79EE0CFDE1F910F91FF90EF90B5
:1055A000DF90CF900895CF92DF92EF92FF920F930A
:1055B0001F9385E7C82E8DE0D82EF12CE12C08E84A
:1055C0001DE030E020E043EF51E267E77DE08EE749
:1055D0009DE0B1DE1F910F91FF90EF90DF90CF9093
:1055E0000895AF92BF92CF92DF92EF92FF920F9306
:1055F0001F93CF93DF93CDB7DEB7ADB6BEB68EE9BE
:105600009CE0C8DB90E001962DB73EB7281B390B14
:105610000FB6F8943EBF0FBE2DBF8DB79EB7019653
:105620007C016EE97CE00E94D3E88091F7060BE6EE
:105630001CE0813031F006E51CE0823011F00EE70D
:105640001CE08FE8C82E8CE0D82E25EE31E243EF27
:1056500051E261E97CE088E99CE06DDE0FB6F894E8
:10566000BEBE0FBEADBEDF91CF911F910F91FF90D7
:10567000EF90DF90CF90BF90AF9008956FEF7FEFE6
:105680000C94C920ECEAF2E183AF64AFCA01F6CF13
:10569000F5CFCF93DF93FC0125AD211104C021E0AC
:1056A00025AF0E9411C1C091B212D091B312E09106
:1056B000E112F091E21282E01995E091E112F0918D
:1056C000E21281E0199530E020E044E1BE0180EB78
:1056D00092E10E940DC123EE32E147E1BE0180EB71
:1056E00092E10E940DC1E091E112F091E21280E09E
:1056F000DF91CF9119944F925F926F927F928F9228
:105700009F92AF92BF92CF92DF92EF92FF921F9340
:10571000CF93DF93CDB7DEB760970FB6F894DEBFB7
:105720000FBECDBF0E94B9BF6B017C0180911502F5
:105730008F3F09F447C00E94B9BF8090EE0490905B
:10574000EF04A090F004B090F104681979098A0977
:105750009B0997FD37C080918412909185128F5FCD
:105760008F70891779F1E091150280E090E0A5E053
:10577000B3E4E43050F424E0E29FF0011124E85552
:10578000FD4F80819181A281B3818D879E87AF87F4
:10579000B88B19821A821B821C821D821E821F8274
:1057A000188619861A861B861C86AE014F5F5F4FCE
:1057B000BE01635F7F4F8AE492E00E9428DA8FEF98
:1057C0008093150259DA8091FC0482FF33C08091E6
:1057D000F904811131C091E09093F90480914D0753
:1057E00089278093F00610924D0783E0809334025E
:1057F0001092FC040E94B9BF6C507E4F8F4F9F4F98
:105800006093FD047093FE048093FF049093000561
:1058100068E873E182E090E00E942DA516E0115047
:1058200059F00E94D1A462E070E080E090E00E9414
:105830001FBFF5CF1092F90480912B0790912C0790
:10584000A0912D07B0912E07A7019601281B390BB7
:105850004A0B5B0BDA01C901B7FF05C08091430514
:10586000882309F4BDC1D701C6018C599F4FAF4FA2
:10587000BF4F80932B0790932C07A0932D07B093D5
:105880002E076091FA04062E000C770B77FF03C0F9
:105890007195619571099091FA048091F8049813BB
:1058A00065C0633008F062C01092FA048091FA0477
:1058B0008093F804643008F069C08091F00681118B
:1058C000EBC08091AA129091AB128F5A924441F48E
:1058D00080911602882309F4F1C08150809316024A
:1058E0000E94948E8090EA079090EB07A090EC07BE
:1058F000B090ED0781110E94A18ED501C4013AE05C
:10590000B695A795979587953A95D1F7009741E079
:10591000A407B10520F08FEF9FEFA0E0B0E09695CF
:105920008795209134022111DBC03091430531115C
:1059300086C18091AA129091AB128F5A924409F4B9
:1059400065C180912F07811161C18091F40490910C
:10595000F504A091F604B091F704C81AD90AEA0A2E
:10596000FB0AF7FC61C10E94E5215EC1633009F0CA
:105970009DCF8091FA0487FD07C081E0880F880FD2
:105980008093FA0464E092CF8FEFF8CF80911F07E5
:1059900021E030E040E050E0882309F456C08090D8
:1059A0001B0790901C07A0901D07B0901E07811444
:1059B0009104A104B104E9F170E090E080E00E945C
:1059C0008FE920E030E040E85EE30E94F0E92B013F
:1059D0003C01C701B601681979098A099B090E942F
:1059E0008FE99B01AC01C301B2010E94E7EE20E008
:1059F00030E04AE754E40E94F0E94B015C0120E00A
:105A000030E040EA52E40E9431F024E630E040E029
:105A100050E087FF12C020E030E040EF51E4C501C4
:105A2000B4010E9431F02AE030E040E050E087FF0E
:105A300004C021E030E040E050E0C0921B07D0926B
:105A40001C07E0921D07F0921E078091030184FF5E
:105A500021C0A091FA040A2E000CBB0B0E94ADEDF0
:105A600024E030E040E050E00E9487ED80910A079A
:105A700090910B07A0910C07B0910D07820F931F17
:105A8000A41FB51F80930A0790930B07A0930C07E0
:105A9000B0930D071092FA04D701C6018856954CB1
:105AA000AF4FBF4F8093F4049093F504A093F60496
:105AB000B093F70481E08093340203CF8CE08093AD
:105AC00016028091F2049091F304009729F0019757
:105AD0009093F3048093F20481E08093340200CF2A
